{
  "contractName": "AuctionEngine",
  "abi": [
    {
      "anonymous": false,
      "inputs": [
        {
          "indexed": false,
          "internalType": "uint256",
          "name": "_index",
          "type": "uint256"
        },
        {
          "indexed": false,
          "internalType": "address",
          "name": "_bidder",
          "type": "address"
        },
        {
          "indexed": false,
          "internalType": "uint256",
          "name": "amount",
          "type": "uint256"
        }
      ],
      "name": "AuctionBid",
      "type": "event"
    },
    {
      "anonymous": false,
      "inputs": [
        {
          "indexed": false,
          "internalType": "uint256",
          "name": "_index",
          "type": "uint256"
        },
        {
          "indexed": false,
          "internalType": "address",
          "name": "_creator",
          "type": "address"
        },
        {
          "indexed": false,
          "internalType": "address",
          "name": "_asset",
          "type": "address"
        }
      ],
      "name": "AuctionCreated",
      "type": "event"
    },
    {
      "anonymous": false,
      "inputs": [
        {
          "indexed": false,
          "internalType": "uint256",
          "name": "auctionIndex",
          "type": "uint256"
        },
        {
          "indexed": false,
          "internalType": "address",
          "name": "claimer",
          "type": "address"
        }
      ],
      "name": "Claim",
      "type": "event"
    },
    {
      "anonymous": false,
      "inputs": [
        {
          "indexed": true,
          "internalType": "address",
          "name": "previousOwner",
          "type": "address"
        },
        {
          "indexed": true,
          "internalType": "address",
          "name": "newOwner",
          "type": "address"
        }
      ],
      "name": "OwnershipTransferred",
      "type": "event"
    },
    {
      "anonymous": false,
      "inputs": [
        {
          "indexed": false,
          "internalType": "address",
          "name": "receiver",
          "type": "address"
        },
        {
          "indexed": false,
          "internalType": "uint256",
          "name": "amount",
          "type": "uint256"
        },
        {
          "indexed": false,
          "internalType": "uint256",
          "name": "paidByCustomer",
          "type": "uint256"
        },
        {
          "indexed": false,
          "internalType": "uint256",
          "name": "commision",
          "type": "uint256"
        },
        {
          "indexed": false,
          "internalType": "uint256",
          "name": "safetyCheckValue",
          "type": "uint256"
        }
      ],
      "name": "PaymentToOwner",
      "type": "event"
    },
    {
      "anonymous": false,
      "inputs": [
        {
          "indexed": false,
          "internalType": "uint256",
          "name": "_index",
          "type": "uint256"
        },
        {
          "indexed": false,
          "internalType": "address",
          "name": "_bidder",
          "type": "address"
        },
        {
          "indexed": false,
          "internalType": "uint256",
          "name": "amount",
          "type": "uint256"
        }
      ],
      "name": "ReturnBidFunds",
      "type": "event"
    },
    {
      "anonymous": false,
      "inputs": [
        {
          "indexed": false,
          "internalType": "address",
          "name": "receiver",
          "type": "address"
        },
        {
          "indexed": false,
          "internalType": "uint256",
          "name": "amount",
          "type": "uint256"
        }
      ],
      "name": "Royalties",
      "type": "event"
    },
    {
      "inputs": [
        {
          "internalType": "uint256",
          "name": "",
          "type": "uint256"
        }
      ],
      "name": "auctions",
      "outputs": [
        {
          "internalType": "address",
          "name": "assetAddress",
          "type": "address"
        },
        {
          "internalType": "uint256",
          "name": "assetId",
          "type": "uint256"
        },
        {
          "internalType": "address payable",
          "name": "creator",
          "type": "address"
        },
        {
          "internalType": "uint256",
          "name": "startTime",
          "type": "uint256"
        },
        {
          "internalType": "uint256",
          "name": "duration",
          "type": "uint256"
        },
        {
          "internalType": "uint256",
          "name": "currentBidAmount",
          "type": "uint256"
        },
        {
          "internalType": "address payable",
          "name": "currentBidOwner",
          "type": "address"
        },
        {
          "internalType": "uint256",
          "name": "bidCount",
          "type": "uint256"
        }
      ],
      "stateMutability": "view",
      "type": "function",
      "constant": true
    },
    {
      "inputs": [
        {
          "internalType": "uint256",
          "name": "",
          "type": "uint256"
        }
      ],
      "name": "offers",
      "outputs": [
        {
          "internalType": "address",
          "name": "assetAddress",
          "type": "address"
        },
        {
          "internalType": "uint256",
          "name": "tokenId",
          "type": "uint256"
        },
        {
          "internalType": "address payable",
          "name": "creator",
          "type": "address"
        },
        {
          "internalType": "uint256",
          "name": "price",
          "type": "uint256"
        },
        {
          "internalType": "bool",
          "name": "isOnSale",
          "type": "bool"
        },
        {
          "internalType": "bool",
          "name": "isAuction",
          "type": "bool"
        },
        {
          "internalType": "uint256",
          "name": "idAuction",
          "type": "uint256"
        }
      ],
      "stateMutability": "view",
      "type": "function",
      "constant": true
    },
    {
      "inputs": [],
      "name": "owner",
      "outputs": [
        {
          "internalType": "address",
          "name": "",
          "type": "address"
        }
      ],
      "stateMutability": "view",
      "type": "function",
      "constant": true
    },
    {
      "inputs": [],
      "name": "renounceOwnership",
      "outputs": [],
      "stateMutability": "nonpayable",
      "type": "function"
    },
    {
      "inputs": [
        {
          "internalType": "address",
          "name": "newOwner",
          "type": "address"
        }
      ],
      "name": "transferOwnership",
      "outputs": [],
      "stateMutability": "nonpayable",
      "type": "function"
    },
    {
      "inputs": [
        {
          "internalType": "address",
          "name": "_assetAddress",
          "type": "address"
        },
        {
          "internalType": "uint256",
          "name": "_tokenId",
          "type": "uint256"
        },
        {
          "internalType": "bool",
          "name": "_isDirectSale",
          "type": "bool"
        },
        {
          "internalType": "bool",
          "name": "_isAuction",
          "type": "bool"
        },
        {
          "internalType": "uint256",
          "name": "_price",
          "type": "uint256"
        },
        {
          "internalType": "uint256",
          "name": "_startPrice",
          "type": "uint256"
        },
        {
          "internalType": "uint256",
          "name": "_startTime",
          "type": "uint256"
        },
        {
          "internalType": "uint256",
          "name": "_duration",
          "type": "uint256"
        }
      ],
      "name": "createOffer",
      "outputs": [],
      "stateMutability": "nonpayable",
      "type": "function"
    },
    {
      "inputs": [
        {
          "internalType": "uint256",
          "name": "_tokenId",
          "type": "uint256"
        }
      ],
      "name": "getAuctionId",
      "outputs": [
        {
          "internalType": "uint256",
          "name": "",
          "type": "uint256"
        }
      ],
      "stateMutability": "view",
      "type": "function",
      "constant": true
    },
    {
      "inputs": [
        {
          "internalType": "uint256",
          "name": "_tokenId",
          "type": "uint256"
        }
      ],
      "name": "removeFromAuction",
      "outputs": [],
      "stateMutability": "nonpayable",
      "type": "function"
    },
    {
      "inputs": [
        {
          "internalType": "uint256",
          "name": "_tokenId",
          "type": "uint256"
        }
      ],
      "name": "removeFromSale",
      "outputs": [],
      "stateMutability": "nonpayable",
      "type": "function"
    },
    {
      "inputs": [
        {
          "internalType": "uint256",
          "name": "_commision",
          "type": "uint256"
        }
      ],
      "name": "setCommision",
      "outputs": [],
      "stateMutability": "nonpayable",
      "type": "function"
    },
    {
      "inputs": [
        {
          "internalType": "uint256",
          "name": "_tokenId",
          "type": "uint256"
        }
      ],
      "name": "buy",
      "outputs": [],
      "stateMutability": "payable",
      "type": "function",
      "payable": true
    },
    {
      "inputs": [
        {
          "internalType": "address",
          "name": "_assetAddress",
          "type": "address"
        },
        {
          "internalType": "uint256",
          "name": "_assetId",
          "type": "uint256"
        },
        {
          "internalType": "uint256",
          "name": "_startPrice",
          "type": "uint256"
        },
        {
          "internalType": "uint256",
          "name": "_startTime",
          "type": "uint256"
        },
        {
          "internalType": "uint256",
          "name": "_duration",
          "type": "uint256"
        }
      ],
      "name": "createAuction",
      "outputs": [
        {
          "internalType": "uint256",
          "name": "",
          "type": "uint256"
        }
      ],
      "stateMutability": "nonpayable",
      "type": "function"
    },
    {
      "inputs": [
        {
          "internalType": "uint256",
          "name": "auctionIndex",
          "type": "uint256"
        }
      ],
      "name": "bid",
      "outputs": [
        {
          "internalType": "bool",
          "name": "",
          "type": "bool"
        }
      ],
      "stateMutability": "payable",
      "type": "function",
      "payable": true
    },
    {
      "inputs": [],
      "name": "getTotalAuctions",
      "outputs": [
        {
          "internalType": "uint256",
          "name": "",
          "type": "uint256"
        }
      ],
      "stateMutability": "view",
      "type": "function",
      "constant": true
    },
    {
      "inputs": [
        {
          "internalType": "uint256",
          "name": "index",
          "type": "uint256"
        }
      ],
      "name": "isActive",
      "outputs": [
        {
          "internalType": "bool",
          "name": "",
          "type": "bool"
        }
      ],
      "stateMutability": "view",
      "type": "function",
      "constant": true
    },
    {
      "inputs": [
        {
          "internalType": "uint256",
          "name": "index",
          "type": "uint256"
        }
      ],
      "name": "isFinished",
      "outputs": [
        {
          "internalType": "bool",
          "name": "",
          "type": "bool"
        }
      ],
      "stateMutability": "view",
      "type": "function",
      "constant": true
    },
    {
      "inputs": [
        {
          "internalType": "uint256",
          "name": "index",
          "type": "uint256"
        }
      ],
      "name": "getStatus",
      "outputs": [
        {
          "internalType": "enum AuctionEngine.Status",
          "name": "",
          "type": "uint8"
        }
      ],
      "stateMutability": "view",
      "type": "function",
      "constant": true
    },
    {
      "inputs": [
        {
          "internalType": "uint256",
          "name": "index",
          "type": "uint256"
        }
      ],
      "name": "endDate",
      "outputs": [
        {
          "internalType": "uint256",
          "name": "",
          "type": "uint256"
        }
      ],
      "stateMutability": "view",
      "type": "function",
      "constant": true
    },
    {
      "inputs": [],
      "name": "ahora",
      "outputs": [
        {
          "internalType": "uint256",
          "name": "",
          "type": "uint256"
        }
      ],
      "stateMutability": "view",
      "type": "function",
      "constant": true
    },
    {
      "inputs": [
        {
          "internalType": "uint256",
          "name": "auctionIndex",
          "type": "uint256"
        }
      ],
      "name": "getCurrentBidOwner",
      "outputs": [
        {
          "internalType": "address",
          "name": "",
          "type": "address"
        }
      ],
      "stateMutability": "view",
      "type": "function",
      "constant": true
    },
    {
      "inputs": [
        {
          "internalType": "uint256",
          "name": "auctionIndex",
          "type": "uint256"
        }
      ],
      "name": "getCurrentBidAmount",
      "outputs": [
        {
          "internalType": "uint256",
          "name": "",
          "type": "uint256"
        }
      ],
      "stateMutability": "view",
      "type": "function",
      "constant": true
    },
    {
      "inputs": [
        {
          "internalType": "uint256",
          "name": "auctionIndex",
          "type": "uint256"
        }
      ],
      "name": "getBidCount",
      "outputs": [
        {
          "internalType": "uint256",
          "name": "",
          "type": "uint256"
        }
      ],
      "stateMutability": "view",
      "type": "function",
      "constant": true
    },
    {
      "inputs": [
        {
          "internalType": "uint256",
          "name": "auctionIndex",
          "type": "uint256"
        }
      ],
      "name": "getWinner",
      "outputs": [
        {
          "internalType": "address",
          "name": "",
          "type": "address"
        }
      ],
      "stateMutability": "view",
      "type": "function",
      "constant": true
    },
    {
      "inputs": [
        {
          "internalType": "uint256",
          "name": "auctionIndex",
          "type": "uint256"
        }
      ],
      "name": "claimAsset",
      "outputs": [],
      "stateMutability": "nonpayable",
      "type": "function"
    },
    {
      "inputs": [],
      "name": "extractBalance",
      "outputs": [],
      "stateMutability": "nonpayable",
      "type": "function"
    }
  ],
  "bytecode": "0x60806040526101f4600255600061001a6100bd60201b60201c565b9050806000806101000a81548173ffffffffffffffffffffffffffffffffffffffff021916908373ffffffffffffffffffffffffffffffffffffffff1602179055508073ffffffffffffffffffffffffffffffffffffffff16600073ffffffffffffffffffffffffffffffffffffffff167f8be0079c531659141344cd1fd0a4f28419497f9722a3daafe3b4186f6b6457e060405160405180910390a3506100c5565b600033905090565b61389f80620000d56000396000f3fe6080604052600436106101665760003560e01c8063715018a6116100d15780638da5cb5b1161008a578063d3c2a59211610064578063d3c2a59214610925578063d96a094a14610960578063e8ba65091461098e578063f2fde38b146109e157610166565b80638da5cb5b14610806578063961c9ae41461085d578063a9852ab6146108ea57610166565b8063715018a61461055d578063744d3411146105745780637b5a96a6146105c357806382afd23b1461065f57806386b46073146106b25780638a72ea6a1461072d57610166565b8063454a2ab311610123578063454a2ab3146103015780634cac5b4b14610347578063571a26a0146103965780635c622a0e1461049a5780636975846a146104f75780636af83b241461054657610166565b806312f4ea2e1461016b5780631361a3b6146101ba5780632241091b146101f55780632b866759146102305780633ef14cc81461025b5780634129b2c914610286575b600080fd5b34801561017757600080fd5b506101a46004803603602081101561018e57600080fd5b8101908080359060200190929190505050610a32565b6040518082815260200191505060405180910390f35b3480156101c657600080fd5b506101f3600480360360208110156101dd57600080fd5b8101908080359060200190929190505050610b69565b005b34801561020157600080fd5b5061022e6004803603602081101561021857600080fd5b8101908080359060200190929190505050610e4e565b005b34801561023c57600080fd5b5061024561113e565b6040518082815260200191505060405180910390f35b34801561026757600080fd5b50610270611146565b6040518082815260200191505060405180910390f35b34801561029257600080fd5b506102bf600480360360208110156102a957600080fd5b8101908080359060200190929190505050611153565b604051808273ffffffffffffffffffffffffffffffffffffffff1673ffffffffffffffffffffffffffffffffffffffff16815260200191505060405180910390f35b61032d6004803603602081101561031757600080fd5b8101908080359060200190929190505050611216565b604051808215151515815260200191505060405180910390f35b34801561035357600080fd5b506103806004803603602081101561036a57600080fd5b81019080803590602001909291905050506114bd565b6040518082815260200191505060405180910390f35b3480156103a257600080fd5b506103cf600480360360208110156103b957600080fd5b8101908080359060200190929190505050611500565b604051808973ffffffffffffffffffffffffffffffffffffffff1673ffffffffffffffffffffffffffffffffffffffff1681526020018881526020018773ffffffffffffffffffffffffffffffffffffffff1673ffffffffffffffffffffffffffffffffffffffff1681526020018681526020018581526020018481526020018373ffffffffffffffffffffffffffffffffffffffff1673ffffffffffffffffffffffffffffffffffffffff1681526020018281526020019850505050505050505060405180910390f35b3480156104a657600080fd5b506104d3600480360360208110156104bd57600080fd5b81019080803590602001909291905050506115b5565b604051808260028111156104e357fe5b60ff16815260200191505060405180910390f35b34801561050357600080fd5b506105306004803603602081101561051a57600080fd5b8101908080359060200190929190505050611622565b6040518082815260200191505060405180910390f35b34801561055257600080fd5b5061055b61164a565b005b34801561056957600080fd5b5061057261175c565b005b34801561058057600080fd5b506105ad6004803603602081101561059757600080fd5b81019080803590602001909291905050506118e4565b6040518082815260200191505060405180910390f35b3480156105cf57600080fd5b5061065d60048036036101008110156105e757600080fd5b81019080803573ffffffffffffffffffffffffffffffffffffffff169060200190929190803590602001909291908035151590602001909291908035151590602001909291908035906020019092919080359060200190929190803590602001909291908035906020019092919050505061190c565b005b34801561066b57600080fd5b506106986004803603602081101561068257600080fd5b8101908080359060200190929190505050611aa5565b604051808215151515815260200191505060405180910390f35b3480156106be57600080fd5b506106eb600480360360208110156106d557600080fd5b8101908080359060200190929190505050611ad0565b604051808273ffffffffffffffffffffffffffffffffffffffff1673ffffffffffffffffffffffffffffffffffffffff16815260200191505060405180910390f35b34801561073957600080fd5b506107666004803603602081101561075057600080fd5b8101908080359060200190929190505050611b18565b604051808873ffffffffffffffffffffffffffffffffffffffff1673ffffffffffffffffffffffffffffffffffffffff1681526020018781526020018673ffffffffffffffffffffffffffffffffffffffff1673ffffffffffffffffffffffffffffffffffffffff168152602001858152602001841515151581526020018315151515815260200182815260200197505050505050505060405180910390f35b34801561081257600080fd5b5061081b611bb4565b604051808273ffffffffffffffffffffffffffffffffffffffff1673ffffffffffffffffffffffffffffffffffffffff16815260200191505060405180910390f35b34801561086957600080fd5b506108d4600480360360a081101561088057600080fd5b81019080803573ffffffffffffffffffffffffffffffffffffffff16906020019092919080359060200190929190803590602001909291908035906020019092919080359060200190929190505050611bdd565b6040518082815260200191505060405180910390f35b3480156108f657600080fd5b506109236004803603602081101561090d57600080fd5b810190808035906020019092919050505061201e565b005b34801561093157600080fd5b5061095e6004803603602081101561094857600080fd5b81019080803590602001909291905050506120f1565b005b61098c6004803603602081101561097657600080fd5b8101908080359060200190929190505050612a33565b005b34801561099a57600080fd5b506109c7600480360360208110156109b157600080fd5b8101908080359060200190929190505050613450565b604051808215151515815260200191505060405180910390f35b3480156109ed57600080fd5b50610a3060048036036020811015610a0457600080fd5b81019080803573ffffffffffffffffffffffffffffffffffffffff16906020019092919050505061347a565b005b6000610a3c61372a565b600360008481526020019081526020016000206040518060e00160405290816000820160009054906101000a900473ffffffffffffffffffffffffffffffffffffffff1673ffffffffffffffffffffffffffffffffffffffff1673ffffffffffffffffffffffffffffffffffffffff168152602001600182015481526020016002820160009054906101000a900473ffffffffffffffffffffffffffffffffffffffff1673ffffffffffffffffffffffffffffffffffffffff1673ffffffffffffffffffffffffffffffffffffffff168152602001600382015481526020016004820160009054906101000a900460ff161515151581526020016004820160019054906101000a900460ff1615151515815260200160058201548152505090508060c00151915050919050565b610b7161372a565b600360008381526020019081526020016000206040518060e00160405290816000820160009054906101000a900473ffffffffffffffffffffffffffffffffffffffff1673ffffffffffffffffffffffffffffffffffffffff1673ffffffffffffffffffffffffffffffffffffffff168152602001600182015481526020016002820160009054906101000a900473ffffffffffffffffffffffffffffffffffffffff1673ffffffffffffffffffffffffffffffffffffffff1673ffffffffffffffffffffffffffffffffffffffff168152602001600382015481526020016004820160009054906101000a900460ff161515151581526020016004820160019054906101000a900460ff161515151581526020016005820154815250509050806040015173ffffffffffffffffffffffffffffffffffffffff163373ffffffffffffffffffffffffffffffffffffffff1614610d36576040517f08c379a00000000000000000000000000000000000000000000000000000000081526004018080602001828103825260158152602001807f596f7520617265206e6f7420746865206f776e6572000000000000000000000081525060200191505060405180910390fd5b6000816080019015159081151581525050806003600084815260200190815260200160002060008201518160000160006101000a81548173ffffffffffffffffffffffffffffffffffffffff021916908373ffffffffffffffffffffffffffffffffffffffff1602179055506020820151816001015560408201518160020160006101000a81548173ffffffffffffffffffffffffffffffffffffffff021916908373ffffffffffffffffffffffffffffffffffffffff1602179055506060820151816003015560808201518160040160006101000a81548160ff02191690831515021790555060a08201518160040160016101000a81548160ff02191690831515021790555060c082015181600501559050505050565b610e5661372a565b600360008381526020019081526020016000206040518060e00160405290816000820160009054906101000a900473ffffffffffffffffffffffffffffffffffffffff1673ffffffffffffffffffffffffffffffffffffffff1673ffffffffffffffffffffffffffffffffffffffff168152602001600182015481526020016002820160009054906101000a900473ffffffffffffffffffffffffffffffffffffffff1673ffffffffffffffffffffffffffffffffffffffff1673ffffffffffffffffffffffffffffffffffffffff168152602001600382015481526020016004820160009054906101000a900460ff161515151581526020016004820160019054906101000a900460ff161515151581526020016005820154815250509050806040015173ffffffffffffffffffffffffffffffffffffffff163373ffffffffffffffffffffffffffffffffffffffff161461101b576040517f08c379a00000000000000000000000000000000000000000000000000000000081526004018080602001828103825260158152602001807f596f7520617265206e6f7420746865206f776e6572000000000000000000000081525060200191505060405180910390fd5b60008160a001901515908115158152505060008160c0018181525050806003600084815260200190815260200160002060008201518160000160006101000a81548173ffffffffffffffffffffffffffffffffffffffff021916908373ffffffffffffffffffffffffffffffffffffffff1602179055506020820151816001015560408201518160020160006101000a81548173ffffffffffffffffffffffffffffffffffffffff021916908373ffffffffffffffffffffffffffffffffffffffff1602179055506060820151816003015560808201518160040160006101000a81548160ff02191690831515021790555060a08201518160040160016101000a81548160ff02191690831515021790555060c082015181600501559050505050565b600042905090565b6000600180549050905090565b600061115e82613450565b6111d0576040517f08c379a00000000000000000000000000000000000000000000000000000000081526004018080602001828103825260188152602001807f41756374696f6e206e6f742066696e697368656420796574000000000000000081525060200191505060405180910390fd5b600182815481106111dd57fe5b906000526020600020906008020160060160009054906101000a900473ffffffffffffffffffffffffffffffffffffffff169050919050565b6000806001838154811061122657fe5b90600052602060002090600802019050600073ffffffffffffffffffffffffffffffffffffffff168160020160009054906101000a900473ffffffffffffffffffffffffffffffffffffffff1673ffffffffffffffffffffffffffffffffffffffff16141561129457600080fd5b61129d83611aa5565b6112a657600080fd5b80600501543411156114b25760008160050154146113c9578060060160009054906101000a900473ffffffffffffffffffffffffffffffffffffffff1673ffffffffffffffffffffffffffffffffffffffff166108fc82600501549081150290604051600060405180830381858888f1935050505015801561132c573d6000803e3d6000fd5b507f972fd66eadedfb87beff023a37f4d8c6a91fdd147fa0d3c036e0c6c5a0cdc795838260060160009054906101000a900473ffffffffffffffffffffffffffffffffffffffff168360050154604051808481526020018373ffffffffffffffffffffffffffffffffffffffff1673ffffffffffffffffffffffffffffffffffffffff168152602001828152602001935050505060405180910390a15b348160050181905550338160060160006101000a81548173ffffffffffffffffffffffffffffffffffffffff021916908373ffffffffffffffffffffffffffffffffffffffff16021790555061142d6001826007015461368790919063ffffffff16565b81600701819055507fb8d756f2d1da4663767eb4d559780ace84f2f65a421a60ddcb47e8b2e5d2fd26833334604051808481526020018373ffffffffffffffffffffffffffffffffffffffff1673ffffffffffffffffffffffffffffffffffffffff168152602001828152602001935050505060405180910390a160019150506114b8565b60009150505b919050565b600080600183815481106114cd57fe5b906000526020600020906008020190506114f88160040154826003015461368790919063ffffffff16565b915050919050565b6001818154811061150d57fe5b90600052602060002090600802016000915090508060000160009054906101000a900473ffffffffffffffffffffffffffffffffffffffff16908060010154908060020160009054906101000a900473ffffffffffffffffffffffffffffffffffffffff16908060030154908060040154908060050154908060060160009054906101000a900473ffffffffffffffffffffffffffffffffffffffff16908060070154905088565b600080600183815481106115c557fe5b9060005260206000209060080201905080600301544210156115eb57600091505061161d565b6116068160040154826003015461368790919063ffffffff16565b42101561161757600191505061161d565b60029150505b919050565b60006001828154811061163157fe5b9060005260206000209060080201600501549050919050565b61165261370f565b73ffffffffffffffffffffffffffffffffffffffff166000809054906101000a900473ffffffffffffffffffffffffffffffffffffffff1673ffffffffffffffffffffffffffffffffffffffff1614611713576040517f08c379a00000000000000000000000000000000000000000000000000000000081526004018080602001828103825260208152602001807f4f776e61626c653a2063616c6c6572206973206e6f7420746865206f776e657281525060200191505060405180910390fd5b3373ffffffffffffffffffffffffffffffffffffffff166108fc479081150290604051600060405180830381858888f19350505050158015611759573d6000803e3d6000fd5b50565b61176461370f565b73ffffffffffffffffffffffffffffffffffffffff166000809054906101000a900473ffffffffffffffffffffffffffffffffffffffff1673ffffffffffffffffffffffffffffffffffffffff1614611825576040517f08c379a00000000000000000000000000000000000000000000000000000000081526004018080602001828103825260208152602001807f4f776e61626c653a2063616c6c6572206973206e6f7420746865206f776e657281525060200191505060405180910390fd5b600073ffffffffffffffffffffffffffffffffffffffff166000809054906101000a900473ffffffffffffffffffffffffffffffffffffffff1673ffffffffffffffffffffffffffffffffffffffff167f8be0079c531659141344cd1fd0a4f28419497f9722a3daafe3b4186f6b6457e060405160405180910390a360008060006101000a81548173ffffffffffffffffffffffffffffffffffffffff021916908373ffffffffffffffffffffffffffffffffffffffff160217905550565b6000600182815481106118f357fe5b9060005260206000209060080201600701549050919050565b61191461372a565b6040518060e001604052808a73ffffffffffffffffffffffffffffffffffffffff1681526020018981526020013373ffffffffffffffffffffffffffffffffffffffff168152602001868152602001881515815260200187151581526020016000815250905085156119975761198d8989868686611bdd565b8160c00181815250505b80600360008a815260200190815260200160002060008201518160000160006101000a81548173ffffffffffffffffffffffffffffffffffffffff021916908373ffffffffffffffffffffffffffffffffffffffff1602179055506020820151816001015560408201518160020160006101000a81548173ffffffffffffffffffffffffffffffffffffffff021916908373ffffffffffffffffffffffffffffffffffffffff1602179055506060820151816003015560808201518160040160006101000a81548160ff02191690831515021790555060a08201518160040160016101000a81548160ff02191690831515021790555060c08201518160050155905050505050505050505050565b600060016002811115611ab457fe5b611abd836115b5565b6002811115611ac857fe5b149050919050565b600060018281548110611adf57fe5b906000526020600020906008020160060160009054906101000a900473ffffffffffffffffffffffffffffffffffffffff169050919050565b60036020528060005260406000206000915090508060000160009054906101000a900473ffffffffffffffffffffffffffffffffffffffff16908060010154908060020160009054906101000a900473ffffffffffffffffffffffffffffffffffffffff16908060030154908060040160009054906101000a900460ff16908060040160019054906101000a900460ff16908060050154905087565b60008060009054906101000a900473ffffffffffffffffffffffffffffffffffffffff16905090565b6000611bfe8673ffffffffffffffffffffffffffffffffffffffff16613717565b611c0757600080fd5b60008690503373ffffffffffffffffffffffffffffffffffffffff168173ffffffffffffffffffffffffffffffffffffffff16636352211e886040518263ffffffff1660e01b81526004018082815260200191505060206040518083038186803b158015611c7457600080fd5b505afa158015611c88573d6000803e3d6000fd5b505050506040513d6020811015611c9e57600080fd5b810190808051906020019092919050505073ffffffffffffffffffffffffffffffffffffffff1614611ccf57600080fd5b3073ffffffffffffffffffffffffffffffffffffffff168173ffffffffffffffffffffffffffffffffffffffff1663081812fc886040518263ffffffff1660e01b81526004018082815260200191505060206040518083038186803b158015611d3757600080fd5b505afa158015611d4b573d6000803e3d6000fd5b505050506040513d6020811015611d6157600080fd5b810190808051906020019092919050505073ffffffffffffffffffffffffffffffffffffffff1614611d9257600080fd5b6000841415611d9f574293505b611da7613797565b6040518061010001604052808973ffffffffffffffffffffffffffffffffffffffff1681526020018881526020013373ffffffffffffffffffffffffffffffffffffffff168152602001868152602001858152602001878152602001600073ffffffffffffffffffffffffffffffffffffffff16815260200160008152509050600181908060018154018082558091505060019003906000526020600020906008020160009091909190915060008201518160000160006101000a81548173ffffffffffffffffffffffffffffffffffffffff021916908373ffffffffffffffffffffffffffffffffffffffff1602179055506020820151816001015560408201518160020160006101000a81548173ffffffffffffffffffffffffffffffffffffffff021916908373ffffffffffffffffffffffffffffffffffffffff160217905550606082015181600301556080820151816004015560a0820151816005015560c08201518160060160006101000a81548173ffffffffffffffffffffffffffffffffffffffff021916908373ffffffffffffffffffffffffffffffffffffffff16021790555060e0820151816007015550506000600180805490500390507f512995dd21f4740d4aba0bdfb032eb8fdad6034f857101e2217bef00c285015f8183604001518460000151604051808481526020018373ffffffffffffffffffffffffffffffffffffffff1673ffffffffffffffffffffffffffffffffffffffff1681526020018273ffffffffffffffffffffffffffffffffffffffff1673ffffffffffffffffffffffffffffffffffffffff168152602001935050505060405180910390a180935050505095945050505050565b61202661370f565b73ffffffffffffffffffffffffffffffffffffffff166000809054906101000a900473ffffffffffffffffffffffffffffffffffffffff1673ffffffffffffffffffffffffffffffffffffffff16146120e7576040517f08c379a00000000000000000000000000000000000000000000000000000000081526004018080602001828103825260208152602001807f4f776e61626c653a2063616c6c6572206973206e6f7420746865206f776e657281525060200191505060405180910390fd5b8060028190555050565b6120fa81613450565b61216c576040517f08c379a000000000000000000000000000000000000000000000000000000000815260040180806020018281038252601b8152602001807f5468652061756374696f6e206973207374696c6c20616374697665000000000081525060200191505060405180910390fd5b60006001828154811061217b57fe5b90600052602060002090600802019050600061219683611153565b90503373ffffffffffffffffffffffffffffffffffffffff168173ffffffffffffffffffffffffffffffffffffffff161461221c576040517f08c379a00000000000000000000000000000000000000000000000000000000081526004018080602001828103825260258152602001806138456025913960400191505060405180910390fd5b61222461372a565b60036000846001015481526020019081526020016000206040518060e00160405290816000820160009054906101000a900473ffffffffffffffffffffffffffffffffffffffff1673ffffffffffffffffffffffffffffffffffffffff1673ffffffffffffffffffffffffffffffffffffffff168152602001600182015481526020016002820160009054906101000a900473ffffffffffffffffffffffffffffffffffffffff1673ffffffffffffffffffffffffffffffffffffffff1673ffffffffffffffffffffffffffffffffffffffff168152602001600382015481526020016004820160009054906101000a900460ff161515151581526020016004820160019054906101000a900460ff161515151581526020016005820154815250509050600115158160a001511515146123c6576040517f08c379a00000000000000000000000000000000000000000000000000000000081526004018080602001828103825260128152602001807f4e4654206e6f7420696e2061756374696f6e000000000000000000000000000081525060200191505060405180910390fd5b60008360000160009054906101000a900473ffffffffffffffffffffffffffffffffffffffff1690508073ffffffffffffffffffffffffffffffffffffffff166323b872dd8560020160009054906101000a900473ffffffffffffffffffffffffffffffffffffffff168587600101546040518463ffffffff1660e01b8152600401808473ffffffffffffffffffffffffffffffffffffffff1673ffffffffffffffffffffffffffffffffffffffff1681526020018373ffffffffffffffffffffffffffffffffffffffff1673ffffffffffffffffffffffffffffffffffffffff1681526020018281526020019350505050600060405180830381600087803b1580156124d257600080fd5b505af11580156124e6573d6000803e3d6000fd5b505050507f35538759d80c1fd7bb450a0d05601db5a99fa8b5d073a07c847a9fd61029b1078584604051808381526020018273ffffffffffffffffffffffffffffffffffffffff1673ffffffffffffffffffffffffffffffffffffffff1681526020019250505060405180910390a160008173ffffffffffffffffffffffffffffffffffffffff1663d48e638a86600101546040518263ffffffff1660e01b81526004018082815260200191505060206040518083038186803b1580156125ac57600080fd5b505afa1580156125c0573d6000803e3d6000fd5b505050506040513d60208110156125d657600080fd5b810190808051906020019092919050505090506000612710600254876005015402816125fe57fe5b04905060008090508660020160009054906101000a900473ffffffffffffffffffffffffffffffffffffffff1673ffffffffffffffffffffffffffffffffffffffff168373ffffffffffffffffffffffffffffffffffffffff1614156127b4576127108473ffffffffffffffffffffffffffffffffffffffff1663bb3bafd689600101546040518263ffffffff1660e01b81526004018082815260200191505060206040518083038186803b1580156126b657600080fd5b505afa1580156126ca573d6000803e3d6000fd5b505050506040513d60208110156126e057600080fd5b8101908080519060200190929190505050886005015402816126fe57fe5b0490508273ffffffffffffffffffffffffffffffffffffffff166108fc829081150290604051600060405180830381858888f19350505050158015612747573d6000803e3d6000fd5b507f54b960faf8b038c33ba9912fdb9ac1e8e0096c5f327d1c89e62b5d9c5357ddb68382604051808373ffffffffffffffffffffffffffffffffffffffff1673ffffffffffffffffffffffffffffffffffffffff1681526020018281526020019250505060405180910390a15b600081838960050154030390508760020160009054906101000a900473ffffffffffffffffffffffffffffffffffffffff1673ffffffffffffffffffffffffffffffffffffffff166108fc829081150290604051600060405180830381858888f1935050505015801561282b573d6000803e3d6000fd5b507f9a37aa02cc986a4a0c2d22af3dcdb9db27c178f7feed43e7037c783b55ed91ba8860020160009054906101000a900473ffffffffffffffffffffffffffffffffffffffff16828a600501546127106002548d60050154028161288b57fe5b046127106002548e60050154028161289f57fe5b048601604051808673ffffffffffffffffffffffffffffffffffffffff1673ffffffffffffffffffffffffffffffffffffffff1681526020018581526020018481526020018381526020018281526020019550505050505060405180910390a160008660a0019015159081151581525050600086608001901515908115158152505085600360008a60010154815260200190815260200160002060008201518160000160006101000a81548173ffffffffffffffffffffffffffffffffffffffff021916908373ffffffffffffffffffffffffffffffffffffffff1602179055506020820151816001015560408201518160020160006101000a81548173ffffffffffffffffffffffffffffffffffffffff021916908373ffffffffffffffffffffffffffffffffffffffff1602179055506060820151816003015560808201518160040160006101000a81548160ff02191690831515021790555060a08201518160040160016101000a81548160ff02191690831515021790555060c08201518160050155905050505050505050505050565b60003390506000349050612a4561372a565b600360008581526020019081526020016000206040518060e00160405290816000820160009054906101000a900473ffffffffffffffffffffffffffffffffffffffff1673ffffffffffffffffffffffffffffffffffffffff1673ffffffffffffffffffffffffffffffffffffffff168152602001600182015481526020016002820160009054906101000a900473ffffffffffffffffffffffffffffffffffffffff1673ffffffffffffffffffffffffffffffffffffffff1673ffffffffffffffffffffffffffffffffffffffff168152602001600382015481526020016004820160009054906101000a900460ff161515151581526020016004820160019054906101000a900460ff161515151581526020016005820154815250509050600115158160800151151514612be3576040517f08c379a00000000000000000000000000000000000000000000000000000000081526004018080602001828103825260168152602001807f4e4654206e6f7420696e206469726563742073616c650000000000000000000081525060200191505060405180910390fd5b60008160600151905080831015612c62576040517f08c379a00000000000000000000000000000000000000000000000000000000081526004018080602001828103825260138152602001807f5072696365206973206e6f7420656e6f7567680000000000000000000000000081525060200191505060405180910390fd5b7f35538759d80c1fd7bb450a0d05601db5a99fa8b5d073a07c847a9fd61029b1078585604051808381526020018273ffffffffffffffffffffffffffffffffffffffff1673ffffffffffffffffffffffffffffffffffffffff1681526020019250505060405180910390a16000826000015190508073ffffffffffffffffffffffffffffffffffffffff166323b872dd846040015187896040518463ffffffff1660e01b8152600401808473ffffffffffffffffffffffffffffffffffffffff1673ffffffffffffffffffffffffffffffffffffffff1681526020018373ffffffffffffffffffffffffffffffffffffffff1673ffffffffffffffffffffffffffffffffffffffff1681526020018281526020019350505050600060405180830381600087803b158015612d9557600080fd5b505af1158015612da9573d6000803e3d6000fd5b5050505060008173ffffffffffffffffffffffffffffffffffffffff1663d48e638a886040518263ffffffff1660e01b81526004018082815260200191505060206040518083038186803b158015612e0057600080fd5b505afa158015612e14573d6000803e3d6000fd5b505050506040513d6020811015612e2a57600080fd5b810190808051906020019092919050505090506000612710600254870281612e4e57fe5b0490506000809050856040015173ffffffffffffffffffffffffffffffffffffffff168373ffffffffffffffffffffffffffffffffffffffff161415612fdc576127108473ffffffffffffffffffffffffffffffffffffffff1663bb3bafd68b6040518263ffffffff1660e01b81526004018082815260200191505060206040518083038186803b158015612ee257600080fd5b505afa158015612ef6573d6000803e3d6000fd5b505050506040513d6020811015612f0c57600080fd5b8101908080519060200190929190505050880281612f2657fe5b0490508273ffffffffffffffffffffffffffffffffffffffff166108fc829081150290604051600060405180830381858888f19350505050158015612f6f573d6000803e3d6000fd5b507f54b960faf8b038c33ba9912fdb9ac1e8e0096c5f327d1c89e62b5d9c5357ddb68382604051808373ffffffffffffffffffffffffffffffffffffffff1673ffffffffffffffffffffffffffffffffffffffff1681526020018281526020019250505060405180910390a15b600081838903039050866040015173ffffffffffffffffffffffffffffffffffffffff166108fc829081150290604051600060405180830381858888f1935050505015801561302f573d6000803e3d6000fd5b507f9a37aa02cc986a4a0c2d22af3dcdb9db27c178f7feed43e7037c783b55ed91ba8760400151828a866127106002548e028161306857fe5b048601604051808673ffffffffffffffffffffffffffffffffffffffff1673ffffffffffffffffffffffffffffffffffffffff1681526020018581526020018481526020018381526020018281526020019550505050505060405180910390a1600115158760a001511515141561331f576130e1613797565b60018860c00151815481106130f257fe5b9060005260206000209060080201604051806101000160405290816000820160009054906101000a900473ffffffffffffffffffffffffffffffffffffffff1673ffffffffffffffffffffffffffffffffffffffff1673ffffffffffffffffffffffffffffffffffffffff168152602001600182015481526020016002820160009054906101000a900473ffffffffffffffffffffffffffffffffffffffff1673ffffffffffffffffffffffffffffffffffffffff1673ffffffffffffffffffffffffffffffffffffffff1681526020016003820154815260200160048201548152602001600582015481526020016006820160009054906101000a900473ffffffffffffffffffffffffffffffffffffffff1673ffffffffffffffffffffffffffffffffffffffff1673ffffffffffffffffffffffffffffffffffffffff168152602001600782015481525050905060008160a001511461331d578060c0015173ffffffffffffffffffffffffffffffffffffffff166108fc8260a001519081150290604051600060405180830381858888f1935050505015801561329c573d6000803e3d6000fd5b507f972fd66eadedfb87beff023a37f4d8c6a91fdd147fa0d3c036e0c6c5a0cdc7958860c001518260c001518360a00151604051808481526020018373ffffffffffffffffffffffffffffffffffffffff1673ffffffffffffffffffffffffffffffffffffffff168152602001828152602001935050505060405180910390a15b505b60008760a0019015159081151581525050600087608001901515908115158152505086600360008c815260200190815260200160002060008201518160000160006101000a81548173ffffffffffffffffffffffffffffffffffffffff021916908373ffffffffffffffffffffffffffffffffffffffff1602179055506020820151816001015560408201518160020160006101000a81548173ffffffffffffffffffffffffffffffffffffffff021916908373ffffffffffffffffffffffffffffffffffffffff1602179055506060820151816003015560808201518160040160006101000a81548160ff02191690831515021790555060a08201518160040160016101000a81548160ff02191690831515021790555060c0820151816005015590505050505050505050505050565b600060028081111561345e57fe5b613467836115b5565b600281111561347257fe5b149050919050565b61348261370f565b73ffffffffffffffffffffffffffffffffffffffff166000809054906101000a900473ffffffffffffffffffffffffffffffffffffffff1673ffffffffffffffffffffffffffffffffffffffff1614613543576040517f08c379a00000000000000000000000000000000000000000000000000000000081526004018080602001828103825260208152602001807f4f776e61626c653a2063616c6c6572206973206e6f7420746865206f776e657281525060200191505060405180910390fd5b600073ffffffffffffffffffffffffffffffffffffffff168173ffffffffffffffffffffffffffffffffffffffff1614156135c9576040517f08c379a000000000000000000000000000000000000000000000000000000000815260040180806020018281038252602681526020018061381f6026913960400191505060405180910390fd5b8073ffffffffffffffffffffffffffffffffffffffff166000809054906101000a900473ffffffffffffffffffffffffffffffffffffffff1673ffffffffffffffffffffffffffffffffffffffff167f8be0079c531659141344cd1fd0a4f28419497f9722a3daafe3b4186f6b6457e060405160405180910390a3806000806101000a81548173ffffffffffffffffffffffffffffffffffffffff021916908373ffffffffffffffffffffffffffffffffffffffff16021790555050565b600080828401905083811015613705576040517f08c379a000000000000000000000000000000000000000000000000000000000815260040180806020018281038252601b8152602001807f536166654d6174683a206164646974696f6e206f766572666c6f77000000000081525060200191505060405180910390fd5b8091505092915050565b600033905090565b600080823b905060008111915050919050565b6040518060e00160405280600073ffffffffffffffffffffffffffffffffffffffff16815260200160008152602001600073ffffffffffffffffffffffffffffffffffffffff16815260200160008152602001600015158152602001600015158152602001600081525090565b604051806101000160405280600073ffffffffffffffffffffffffffffffffffffffff16815260200160008152602001600073ffffffffffffffffffffffffffffffffffffffff168152602001600081526020016000815260200160008152602001600073ffffffffffffffffffffffffffffffffffffffff16815260200160008152509056fe4f776e61626c653a206e6577206f776e657220697320746865207a65726f2061646472657373596f7520617265206e6f74207468652077696e6e6572206f66207468652061756374696f6ea2646970667358221220c73d47b4f666ca1fa7dcea401706ee3927d505aba6da95f3cf305512416cd3fc64736f6c63430006020033",
  "source": "pragma solidity ^0.6.2;\n\nimport \"./AddressUtils.sol\";\nimport \"@openzeppelin/contracts/token/ERC721/ERC721.sol\";\nimport \"@openzeppelin/contracts/access/Ownable.sol\";\nimport \"./XSigma721.sol\";\n\ncontract AuctionEngine is Ownable {\n    using SafeMath for uint256;\n    using AddressUtils for address;\n\n    event AuctionCreated(uint256 _index, address _creator, address _asset);\n    event AuctionBid(uint256 _index, address _bidder, uint256 amount);\n    event Claim(uint256 auctionIndex, address claimer);\n    event ReturnBidFunds(uint256 _index, address _bidder, uint256 amount);\n\n    event Royalties(address receiver, uint256 amount);\n    event PaymentToOwner(\n        address receiver,\n        uint256 amount,\n        uint256 paidByCustomer,\n        uint256 commision,\n        uint256 safetyCheckValue\n    );\n\n    enum Status {pending, active, finished}\n    struct Auction {\n        address assetAddress;\n        uint256 assetId;\n        address payable creator;\n        uint256 startTime;\n        uint256 duration;\n        uint256 currentBidAmount;\n        address payable currentBidOwner;\n        uint256 bidCount;\n    }\n    Auction[] public auctions;\n\n    uint256 commision = 500; // this is the commision that will charge the marketplace by default.\n\n    struct Offer {\n        address assetAddress; // address of the token\n        uint256 tokenId;\n        address payable creator; // who creates the offer\n        uint256 price; // price of each token\n        bool isOnSale; // is on sale or not\n        bool isAuction; // is this offer for an auction of is a direct sale\n        uint256 idAuction;\n    }\n    mapping(uint256 => Offer) public offers;\n\n    function createOffer(\n        address _assetAddress,\n        uint256 _tokenId,\n        bool _isDirectSale,\n        bool _isAuction,\n        uint256 _price,\n        uint256 _startPrice, // minimum price\n        uint256 _startTime, // time when the auction will start. Check the format with frontend\n        uint256 _duration // duration in seconds of the auction)\n    ) public {\n        Offer memory offer =\n            Offer({\n                assetAddress: _assetAddress,\n                tokenId: _tokenId,\n                creator: msg.sender,\n                price: _price,\n                isOnSale: _isDirectSale,\n                isAuction: _isAuction,\n                idAuction: 0\n            });\n        if (_isAuction) {\n            offer.idAuction = createAuction(\n                _assetAddress,\n                _tokenId,\n                _startPrice,\n                _startTime,\n                _duration\n            );\n        }\n        offers[_tokenId] = offer;\n    }\n\n    function getAuctionId(uint256 _tokenId) public view returns (uint256) {\n        Offer memory offer = offers[_tokenId];\n        return offer.idAuction;\n    }\n\n    function removeFromAuction(uint256 _tokenId) public\n    {\n        Offer memory offer = offers[_tokenId];\n        require(msg.sender == offer.creator, \"You are not the owner\");\n        offer.isAuction = false;\n        offer.idAuction = 0;\n        offers[_tokenId] = offer;\n    }\n\n    function removeFromSale(uint256 _tokenId) public\n    {\n        Offer memory offer = offers[_tokenId];\n        require(msg.sender == offer.creator, \"You are not the owner\");\n        offer.isOnSale = false;\n        offers[_tokenId] = offer;\n    }\n\n    // Changes the default commision. Only the owner of the marketplace can do that\n    function setCommision(uint256 _commision) public onlyOwner {\n        commision = _commision;\n    }\n\n    function buy(uint256 _tokenId) external payable {\n        address buyer = msg.sender;\n        uint256 paidPrice = msg.value;\n\n        Offer memory offer = offers[_tokenId];\n        require(offer.isOnSale == true, \"NFT not in direct sale\");\n        uint256 price = offer.price;\n        require(paidPrice >= price, \"Price is not enough\");\n\n        emit Claim(_tokenId, buyer);\n        XSigma721 asset = XSigma721(offer.assetAddress);\n        asset.transferFrom(offer.creator, buyer, _tokenId);\n\n   // now, pay the amount - commision - royalties to the auction creator\n        address payable creatorNFT = payable(asset.getCreator(_tokenId));       \n\n        uint256 commisionToPay = (paidPrice * commision) / 10000;\n        uint256 royaltiesToPay = 0;\n        if (creatorNFT == offer.creator) {\n            // It is a resale. Transfer royalties\n            royaltiesToPay = (paidPrice * asset.getRoyalties(_tokenId)) / 10000;\n            creatorNFT.transfer(royaltiesToPay);\n            emit Royalties(creatorNFT, royaltiesToPay);\n        }\n        uint256 amountToPay = paidPrice- commisionToPay - royaltiesToPay;       \n\n        offer.creator.transfer(amountToPay);\n        emit PaymentToOwner(\n            offer.creator,\n            amountToPay,\n            paidPrice,\n            commisionToPay,\n            amountToPay + ((paidPrice * commision) / 10000)\n        );\n\n        // is there is an auction open, we have to give back the last bid amount to the last bidder\n        if (offer.isAuction == true)\n        {\n            Auction memory auction = auctions[offer.idAuction];\n            if (auction.currentBidAmount != 0) {\n                // return funds to the previuos bidder\n                auction.currentBidOwner.transfer(auction.currentBidAmount);\n                emit ReturnBidFunds(\n                    offer.idAuction,\n                    auction.currentBidOwner,\n                    auction.currentBidAmount\n                );\n            }\n        }\n\n        offer.isAuction = false;\n        offer.isOnSale = false;\n        offers[_tokenId] = offer;\n    }\n\n    function createAuction(\n        address _assetAddress, // address of the XSigma721 token\n        uint256 _assetId, // id of the NFT\n        uint256 _startPrice, // minimum price\n        uint256 _startTime, // time when the auction will start. Check the format with frontend\n        uint256 _duration // duration in seconds of the auction\n    ) public returns (uint256) {\n        require(_assetAddress.isContract());\n        ERC721 asset = ERC721(_assetAddress);\n        require(asset.ownerOf(_assetId) == msg.sender);\n        require(asset.getApproved(_assetId) == address(this));\n\n        if (_startTime == 0) {\n            _startTime = now;\n        }\n\n        Auction memory auction =\n            Auction({\n                creator: msg.sender,\n                assetAddress: _assetAddress,\n                assetId: _assetId,\n                startTime: _startTime,\n                duration: _duration,\n                currentBidAmount: _startPrice,\n                currentBidOwner: address(0),\n                bidCount: 0\n            });\n        auctions.push(auction);\n        uint256 index = auctions.length - 1;\n\n        emit AuctionCreated(index, auction.creator, auction.assetAddress);\n\n        return index;\n    }\n\n    function bid(uint256 auctionIndex) public payable returns (bool) {\n        Auction storage auction = auctions[auctionIndex];\n        require(auction.creator != address(0));\n        require(isActive(auctionIndex));\n\n        if (msg.value > auction.currentBidAmount) {\n            // we got a better bid. Return funds to the previous best bidder\n            // and register the sender as `currentBidOwner`\n            if (auction.currentBidAmount != 0) {\n                // return funds to the previuos bidder\n                auction.currentBidOwner.transfer(auction.currentBidAmount);\n                emit ReturnBidFunds(\n                    auctionIndex,\n                    auction.currentBidOwner,\n                    auction.currentBidAmount\n                );\n            }\n            // register new bidder\n            auction.currentBidAmount = msg.value;\n            auction.currentBidOwner = msg.sender;\n            auction.bidCount = auction.bidCount.add(1);\n\n            emit AuctionBid(auctionIndex, msg.sender, msg.value);\n\n            return true;\n        }\n        return false;\n    }\n\n    function getTotalAuctions() public view returns (uint256) {\n        return auctions.length;\n    }\n\n    function isActive(uint256 index) public view returns (bool) {\n        return getStatus(index) == Status.active;\n    }\n\n    function isFinished(uint256 index) public view returns (bool) {\n        return getStatus(index) == Status.finished;\n    }\n\n    function getStatus(uint256 index) public view returns (Status) {\n        Auction storage auction = auctions[index];\n        if (now < auction.startTime) {\n            return Status.pending;\n        } else if (now < auction.startTime.add(auction.duration)) {\n            return Status.active;\n        } else {\n            return Status.finished;\n        }\n    }\n\n    function endDate(uint256 index) public view returns (uint256) {\n        Auction storage auction = auctions[index];\n        return auction.startTime.add(auction.duration);\n    }\n\n    function ahora() public view returns (uint256) {\n        return now;\n    }\n\n    function getCurrentBidOwner(uint256 auctionIndex)\n        public\n        view\n        returns (address)\n    {\n        return auctions[auctionIndex].currentBidOwner;\n    }\n\n    function getCurrentBidAmount(uint256 auctionIndex)\n        public\n        view\n        returns (uint256)\n    {\n        return auctions[auctionIndex].currentBidAmount;\n    }\n\n    function getBidCount(uint256 auctionIndex) public view returns (uint256) {\n        return auctions[auctionIndex].bidCount;\n    }\n\n    function getWinner(uint256 auctionIndex) public view returns (address) {\n        require(isFinished(auctionIndex), \"Auction not finished yet\");\n        return auctions[auctionIndex].currentBidOwner;\n    }\n\n    /*\n    function claimFunds(uint256 auctionIndex) public {\n        require(isFinished(auctionIndex), \"The auction is still active\");\n        Auction storage auction = auctions[auctionIndex];\n\n        require(\n            auction.creator == msg.sender,\n            \"You are not the creator of the auction\"\n        );\n        address payable auctionCreator = payable(auction.creator);\n        // TODO transfer substracting the commision\n        auctionCreator.transfer(auction.currentBidAmount);\n\n        XSigma721 asset = XSigma721(auction.assetAddress);\n        address creatorNFT = asset.getCreator(auction.assetId);\n        // TODO transfer royalties\n        emit Royalties(creatorNFT, auction.currentBidAmount);\n\n        emit Claim(auctionIndex, auction.creator);\n    }\n*/\n    function claimAsset(uint256 auctionIndex) public {\n        require(isFinished(auctionIndex), \"The auction is still active\");\n        Auction storage auction = auctions[auctionIndex];\n\n        address winner = getWinner(auctionIndex);\n        require(winner == msg.sender, \"You are not the winner of the auction\");\n\n        // the token could be sold in direct sale or the owner cancelled the auction\n        Offer memory offer = offers[auction.assetId];\n        require(offer.isAuction == true, \"NFT not in auction\");       \n\n        XSigma721 asset = XSigma721(auction.assetAddress);\n        asset.transferFrom(auction.creator, winner, auction.assetId);\n\n        emit Claim(auctionIndex, winner);\n\n        // now, pay the amount - commision - royalties to the auction creator\n        address payable creatorNFT = payable(asset.getCreator(auction.assetId));\n        uint256 commisionToPay = (auction.currentBidAmount * commision) / 10000;\n        uint256 royaltiesToPay = 0;\n        if (creatorNFT == auction.creator) {\n            // It is a resale. Transfer royalties\n            royaltiesToPay =\n                (auction.currentBidAmount *\n                    asset.getRoyalties(auction.assetId)) /\n                10000;\n            creatorNFT.transfer(royaltiesToPay);\n            emit Royalties(creatorNFT, royaltiesToPay);\n        }\n        uint256 amountToPay =\n            auction.currentBidAmount - commisionToPay - royaltiesToPay;\n\n        auction.creator.transfer(amountToPay);\n        emit PaymentToOwner(\n            auction.creator,\n            amountToPay,\n            auction.currentBidAmount,\n            (auction.currentBidAmount * commision) / 10000,\n            amountToPay + ((auction.currentBidAmount * commision) / 10000)\n        );\n\n        offer.isAuction = false;\n        offer.isOnSale = false;\n        offers[auction.assetId] = offer;\n    }\n\n    function extractBalance() public onlyOwner {\n        //   emit Payment(msg.sender, address(this).balance);\n        msg.sender.transfer(address(this).balance);\n    }\n}\n",
  "sourcePath": "/home/linux/ether/auction2/contracts/AuctionEngine.sol",
  "compiler": {
    "name": "solc",
    "version": "0.6.2+commit.bacdbe57.Emscripten.clang"
  },
  "schemaVersion": "3.3.4",
  "updatedAt": "2021-04-14T18:50:00.762Z",
  "networkType": "ethereum",
  "devdoc": {
    "methods": {
      "owner()": {
        "details": "Returns the address of the current owner."
      },
      "renounceOwnership()": {
        "details": "Leaves the contract without owner. It will not be possible to call `onlyOwner` functions anymore. Can only be called by the current owner.     * NOTE: Renouncing ownership will leave the contract without an owner, thereby removing any functionality that is only available to the owner."
      },
      "transferOwnership(address)": {
        "details": "Transfers ownership of the contract to a new account (`newOwner`). Can only be called by the current owner."
      }
    }
  },
  "userdoc": {
    "methods": {}
  }
}